{
  "contractName": "Product",
  "abi": [
    {
      "inputs": [
        {
          "internalType": "address payable",
          "name": "managerAddress",
          "type": "address"
        },
        {
          "internalType": "contract IERC20",
          "name": "tokenAddress",
          "type": "address"
        },
        {
          "internalType": "string",
          "name": "productTitle",
          "type": "string"
        },
        {
          "internalType": "string",
          "name": "productDescription",
          "type": "string"
        },
        {
          "internalType": "string",
          "name": "productDomain",
          "type": "string"
        },
        {
          "internalType": "uint256",
          "name": "productDevReward",
          "type": "uint256"
        },
        {
          "internalType": "uint256",
          "name": "productEvaluatorReward",
          "type": "uint256"
        }
      ],
      "stateMutability": "nonpayable",
      "type": "constructor"
    },
    {
      "anonymous": false,
      "inputs": [
        {
          "indexed": false,
          "internalType": "address",
          "name": "recipient",
          "type": "address"
        }
      ],
      "name": "CreatorPaid",
      "type": "event"
    },
    {
      "anonymous": false,
      "inputs": [
        {
          "indexed": false,
          "internalType": "address",
          "name": "contributor",
          "type": "address"
        },
        {
          "indexed": false,
          "internalType": "uint256",
          "name": "amount",
          "type": "uint256"
        },
        {
          "indexed": false,
          "internalType": "uint256",
          "name": "currentTotal",
          "type": "uint256"
        }
      ],
      "name": "FundingReceived",
      "type": "event"
    },
    {
      "anonymous": false,
      "inputs": [
        {
          "indexed": true,
          "internalType": "bytes32",
          "name": "role",
          "type": "bytes32"
        },
        {
          "indexed": true,
          "internalType": "bytes32",
          "name": "previousAdminRole",
          "type": "bytes32"
        },
        {
          "indexed": true,
          "internalType": "bytes32",
          "name": "newAdminRole",
          "type": "bytes32"
        }
      ],
      "name": "RoleAdminChanged",
      "type": "event"
    },
    {
      "anonymous": false,
      "inputs": [
        {
          "indexed": true,
          "internalType": "bytes32",
          "name": "role",
          "type": "bytes32"
        },
        {
          "indexed": true,
          "internalType": "address",
          "name": "account",
          "type": "address"
        },
        {
          "indexed": true,
          "internalType": "address",
          "name": "sender",
          "type": "address"
        }
      ],
      "name": "RoleGranted",
      "type": "event"
    },
    {
      "anonymous": false,
      "inputs": [
        {
          "indexed": true,
          "internalType": "bytes32",
          "name": "role",
          "type": "bytes32"
        },
        {
          "indexed": true,
          "internalType": "address",
          "name": "account",
          "type": "address"
        },
        {
          "indexed": true,
          "internalType": "address",
          "name": "sender",
          "type": "address"
        }
      ],
      "name": "RoleRevoked",
      "type": "event"
    },
    {
      "inputs": [],
      "name": "DEFAULT_ADMIN_ROLE",
      "outputs": [
        {
          "internalType": "bytes32",
          "name": "",
          "type": "bytes32"
        }
      ],
      "stateMutability": "view",
      "type": "function"
    },
    {
      "inputs": [],
      "name": "amountGoal",
      "outputs": [
        {
          "internalType": "uint256",
          "name": "",
          "type": "uint256"
        }
      ],
      "stateMutability": "view",
      "type": "function"
    },
    {
      "inputs": [
        {
          "internalType": "address",
          "name": "",
          "type": "address"
        }
      ],
      "name": "contributions",
      "outputs": [
        {
          "internalType": "uint256",
          "name": "",
          "type": "uint256"
        }
      ],
      "stateMutability": "view",
      "type": "function"
    },
    {
      "inputs": [],
      "name": "currentBalance",
      "outputs": [
        {
          "internalType": "uint256",
          "name": "",
          "type": "uint256"
        }
      ],
      "stateMutability": "view",
      "type": "function"
    },
    {
      "inputs": [],
      "name": "description",
      "outputs": [
        {
          "internalType": "string",
          "name": "",
          "type": "string"
        }
      ],
      "stateMutability": "view",
      "type": "function"
    },
    {
      "inputs": [],
      "name": "devReward",
      "outputs": [
        {
          "internalType": "uint256",
          "name": "",
          "type": "uint256"
        }
      ],
      "stateMutability": "view",
      "type": "function"
    },
    {
      "inputs": [],
      "name": "domain",
      "outputs": [
        {
          "internalType": "string",
          "name": "",
          "type": "string"
        }
      ],
      "stateMutability": "view",
      "type": "function"
    },
    {
      "inputs": [],
      "name": "evaluatorReward",
      "outputs": [
        {
          "internalType": "uint256",
          "name": "",
          "type": "uint256"
        }
      ],
      "stateMutability": "view",
      "type": "function"
    },
    {
      "inputs": [
        {
          "internalType": "bytes32",
          "name": "role",
          "type": "bytes32"
        }
      ],
      "name": "getRoleAdmin",
      "outputs": [
        {
          "internalType": "bytes32",
          "name": "",
          "type": "bytes32"
        }
      ],
      "stateMutability": "view",
      "type": "function"
    },
    {
      "inputs": [
        {
          "internalType": "bytes32",
          "name": "role",
          "type": "bytes32"
        },
        {
          "internalType": "uint256",
          "name": "index",
          "type": "uint256"
        }
      ],
      "name": "getRoleMember",
      "outputs": [
        {
          "internalType": "address",
          "name": "",
          "type": "address"
        }
      ],
      "stateMutability": "view",
      "type": "function"
    },
    {
      "inputs": [
        {
          "internalType": "bytes32",
          "name": "role",
          "type": "bytes32"
        }
      ],
      "name": "getRoleMemberCount",
      "outputs": [
        {
          "internalType": "uint256",
          "name": "",
          "type": "uint256"
        }
      ],
      "stateMutability": "view",
      "type": "function"
    },
    {
      "inputs": [
        {
          "internalType": "bytes32",
          "name": "role",
          "type": "bytes32"
        },
        {
          "internalType": "address",
          "name": "account",
          "type": "address"
        }
      ],
      "name": "grantRole",
      "outputs": [],
      "stateMutability": "nonpayable",
      "type": "function"
    },
    {
      "inputs": [
        {
          "internalType": "bytes32",
          "name": "role",
          "type": "bytes32"
        },
        {
          "internalType": "address",
          "name": "account",
          "type": "address"
        }
      ],
      "name": "hasRole",
      "outputs": [
        {
          "internalType": "bool",
          "name": "",
          "type": "bool"
        }
      ],
      "stateMutability": "view",
      "type": "function"
    },
    {
      "inputs": [],
      "name": "manager",
      "outputs": [
        {
          "internalType": "address payable",
          "name": "",
          "type": "address"
        }
      ],
      "stateMutability": "view",
      "type": "function"
    },
    {
      "inputs": [],
      "name": "projectAddress",
      "outputs": [
        {
          "internalType": "address",
          "name": "",
          "type": "address"
        }
      ],
      "stateMutability": "view",
      "type": "function"
    },
    {
      "inputs": [
        {
          "internalType": "bytes32",
          "name": "role",
          "type": "bytes32"
        },
        {
          "internalType": "address",
          "name": "account",
          "type": "address"
        }
      ],
      "name": "renounceRole",
      "outputs": [],
      "stateMutability": "nonpayable",
      "type": "function"
    },
    {
      "inputs": [
        {
          "internalType": "bytes32",
          "name": "role",
          "type": "bytes32"
        },
        {
          "internalType": "address",
          "name": "account",
          "type": "address"
        }
      ],
      "name": "revokeRole",
      "outputs": [],
      "stateMutability": "nonpayable",
      "type": "function"
    },
    {
      "inputs": [],
      "name": "state",
      "outputs": [
        {
          "internalType": "enum Product.State",
          "name": "",
          "type": "uint8"
        }
      ],
      "stateMutability": "view",
      "type": "function"
    },
    {
      "inputs": [],
      "name": "title",
      "outputs": [
        {
          "internalType": "string",
          "name": "",
          "type": "string"
        }
      ],
      "stateMutability": "view",
      "type": "function"
    },
    {
      "inputs": [],
      "name": "token",
      "outputs": [
        {
          "internalType": "contract IERC20",
          "name": "",
          "type": "address"
        }
      ],
      "stateMutability": "view",
      "type": "function"
    },
    {
      "inputs": [],
      "name": "getSender",
      "outputs": [
        {
          "internalType": "address",
          "name": "sender",
          "type": "address"
        }
      ],
      "stateMutability": "view",
      "type": "function"
    },
    {
      "inputs": [],
      "name": "getManager",
      "outputs": [
        {
          "internalType": "address",
          "name": "managerAddress",
          "type": "address"
        }
      ],
      "stateMutability": "view",
      "type": "function"
    },
    {
      "inputs": [],
      "name": "getProductState",
      "outputs": [
        {
          "internalType": "enum Product.State",
          "name": "",
          "type": "uint8"
        }
      ],
      "stateMutability": "view",
      "type": "function"
    },
    {
      "inputs": [
        {
          "internalType": "uint256",
          "name": "amount",
          "type": "uint256"
        }
      ],
      "name": "contribute",
      "outputs": [],
      "stateMutability": "payable",
      "type": "function"
    },
    {
      "inputs": [
        {
          "internalType": "address",
          "name": "funder",
          "type": "address"
        }
      ],
      "name": "checkIfFunderPayed",
      "outputs": [
        {
          "internalType": "bool",
          "name": "",
          "type": "bool"
        }
      ],
      "stateMutability": "view",
      "type": "function"
    },
    {
      "inputs": [],
      "name": "checkIfFundingCompleteOrExpired",
      "outputs": [],
      "stateMutability": "nonpayable",
      "type": "function"
    },
    {
      "inputs": [],
      "name": "getRefund",
      "outputs": [
        {
          "internalType": "bool",
          "name": "",
          "type": "bool"
        }
      ],
      "stateMutability": "payable",
      "type": "function"
    },
    {
      "inputs": [],
      "name": "getAmountToRefund",
      "outputs": [
        {
          "internalType": "uint256",
          "name": "",
          "type": "uint256"
        }
      ],
      "stateMutability": "view",
      "type": "function"
    },
    {
      "inputs": [],
      "name": "getDetails",
      "outputs": [
        {
          "internalType": "address",
          "name": "productAddress",
          "type": "address"
        },
        {
          "internalType": "address payable",
          "name": "managerAddress",
          "type": "address"
        },
        {
          "internalType": "string",
          "name": "productTitle",
          "type": "string"
        },
        {
          "internalType": "string",
          "name": "productDescription",
          "type": "string"
        },
        {
          "internalType": "string",
          "name": "productDomain",
          "type": "string"
        },
        {
          "internalType": "enum Product.State",
          "name": "currentState",
          "type": "uint8"
        },
        {
          "internalType": "uint256",
          "name": "currentAmount",
          "type": "uint256"
        },
        {
          "internalType": "uint256",
          "name": "goalAmount",
          "type": "uint256"
        },
        {
          "internalType": "uint256",
          "name": "productDevReward",
          "type": "uint256"
        },
        {
          "internalType": "uint256",
          "name": "productEvaluatorReward",
          "type": "uint256"
        }
      ],
      "stateMutability": "view",
      "type": "function"
    }
  ],
  "bytecode": "0x6080604052600a805460ff60a01b191690553480156200001e57600080fd5b50604051620018bd380380620018bd833981810160405260e08110156200004457600080fd5b815160208301516040808501805191519395929483019291846401000000008211156200007057600080fd5b9083019060208201858111156200008657600080fd5b8251640100000000811182820188101715620000a157600080fd5b82525081516020918201929091019080838360005b83811015620000d0578181015183820152602001620000b6565b50505050905090810190601f168015620000fe5780820380516001836020036101000a031916815260200191505b50604052602001805160405193929190846401000000008211156200012257600080fd5b9083019060208201858111156200013857600080fd5b82516401000000008111828201881017156200015357600080fd5b82525081516020918201929091019080838360005b838110156200018257818101518382015260200162000168565b50505050905090810190601f168015620001b05780820380516001836020036101000a031916815260200191505b5060405260200180516040519392919084640100000000821115620001d457600080fd5b908301906020820185811115620001ea57600080fd5b82516401000000008111828201881017156200020557600080fd5b82525081516020918201929091019080838360005b83811015620002345781810151838201526020016200021a565b50505050905090810190601f168015620002625780820380516001836020036101000a031916815260200191505b5060409081526020828101519290910151600180546001600160a01b0319166001600160a01b038c1617905587519294509250620002a6916005918801906200031f565b508351620002bc9060069060208701906200031f565b508181016003556000600455600782905560088190558251620002e79060099060208601906200031f565b5050600a80546001600160a01b039096166001600160a01b0319968716179055505060028054909316301790925550620003c4915050565b828054600181600116156101000203166002900490600052602060002090601f016020900481019282601f106200036257805160ff191683800117855562000392565b8280016001018555821562000392579182015b828111156200039257825182559160200191906001019062000375565b50620003a0929150620003a4565b5090565b620003c191905b80821115620003a05760008155600101620003ab565b90565b6114e980620003d46000396000f3fe6080604052600436106101c15760003560e01c80639010d07c116100f7578063ca15c87311610095578063f66c40d311610064578063f66c40d31461059e578063fa32f72a146105d1578063fbbf93a0146105e6578063fc0c546a14610789576101c1565b8063ca15c87314610511578063ce845d1d1461053b578063d500958414610550578063d547741f14610565576101c1565b8063b2d5ae44116100d1578063b2d5ae441461049e578063c19d93fb146104a6578063c1cbbca7146104df578063c2fb26a6146104fc576101c1565b80639010d07c1461040c57806391d148541461043c578063a217fddf14610489576101c1565b806342e94c90116101645780634a79d50c1161013e5780634a79d50c146103435780635e01eb5a146103cd5780637284e416146103e257806386f32586146103f7576101c1565b806342e94c90146102e657806343b8cf4b14610319578063481c6a751461032e576101c1565b806326eaee92116101a057806326eaee921461022c5780632f2ff15d1461024157806336568abe1461027c5780633cf96af1146102b5576101c1565b8062d04d1a146101c65780630785001c146101ed578063248a9ca314610202575b600080fd5b3480156101d257600080fd5b506101db61079e565b60408051918252519081900360200190f35b3480156101f957600080fd5b506101db6107cb565b34801561020e57600080fd5b506101db6004803603602081101561022557600080fd5b50356107d1565b34801561023857600080fd5b506101db6107e9565b34801561024d57600080fd5b5061027a6004803603604081101561026457600080fd5b50803590602001356001600160a01b03166107ef565b005b34801561028857600080fd5b5061027a6004803603604081101561029f57600080fd5b50803590602001356001600160a01b031661085b565b3480156102c157600080fd5b506102ca6108bc565b604080516001600160a01b039092168252519081900360200190f35b3480156102f257600080fd5b506101db6004803603602081101561030957600080fd5b50356001600160a01b03166108cb565b34801561032557600080fd5b506101db6108dd565b34801561033a57600080fd5b506102ca6108e3565b34801561034f57600080fd5b506103586108f2565b6040805160208082528351818301528351919283929083019185019080838360005b8381101561039257818101518382015260200161037a565b50505050905090810190601f1680156103bf5780820380516001836020036101000a031916815260200191505b509250505060405180910390f35b3480156103d957600080fd5b506102ca610980565b3480156103ee57600080fd5b50610358610984565b34801561040357600080fd5b5061027a6109df565b34801561041857600080fd5b506102ca6004803603604081101561042f57600080fd5b5080359060200135610a00565b34801561044857600080fd5b506104756004803603604081101561045f57600080fd5b50803590602001356001600160a01b0316610a27565b604080519115158252519081900360200190f35b34801561049557600080fd5b506101db610a45565b610475610a4a565b3480156104b257600080fd5b506104bb610b69565b604051808260028111156104cb57fe5b60ff16815260200191505060405180910390f35b61027a600480360360208110156104f557600080fd5b5035610b79565b34801561050857600080fd5b50610358610cd1565b34801561051d57600080fd5b506101db6004803603602081101561053457600080fd5b5035610d2c565b34801561054757600080fd5b506101db610d43565b34801561055c57600080fd5b506102ca610d49565b34801561057157600080fd5b5061027a6004803603604081101561058857600080fd5b50803590602001356001600160a01b0316610d58565b3480156105aa57600080fd5b50610475600480360360208110156105c157600080fd5b50356001600160a01b0316610db1565b3480156105dd57600080fd5b506104bb610ddf565b3480156105f257600080fd5b506105fb610def565b604080516001600160a01b03808d1682528b166020820152908101606082016080830160a0840189600281111561062e57fe5b60ff16815260200188815260200187815260200186815260200185815260200184810384528c818151815260200191508051906020019080838360005b8381101561068357818101518382015260200161066b565b50505050905090810190601f1680156106b05780820380516001836020036101000a031916815260200191505b5084810383528b5181528b516020918201918d019080838360005b838110156106e35781810151838201526020016106cb565b50505050905090810190601f1680156107105780820380516001836020036101000a031916815260200191505b5084810382528a5181528a516020918201918c019080838360005b8381101561074357818101518382015260200161072b565b50505050905090810190601f1680156107705780820380516001836020036101000a031916815260200191505b509d505050505050505050505050505060405180910390f35b34801561079557600080fd5b506102ca610ffd565b336000908152600b60205260408120546107b757600080fd5b50336000908152600b602052604090205490565b60035481565b6000818152602081905260409020600201545b919050565b60075481565b6000828152602081905260409020600201546108129061080d610980565b610a27565b61084d5760405162461bcd60e51b815260040180806020018281038252602f815260200180611426602f913960400191505060405180910390fd5b610857828261100c565b5050565b610863610980565b6001600160a01b0316816001600160a01b0316146108b25760405162461bcd60e51b815260040180806020018281038252602f815260200180611485602f913960400191505060405180910390fd5b610857828261107b565b6002546001600160a01b031681565b600b6020526000908152604090205481565b60085481565b6001546001600160a01b031681565b6005805460408051602060026001851615610100026000190190941693909304601f810184900484028201840190925281815292918301828280156109785780601f1061094d57610100808354040283529160200191610978565b820191906000526020600020905b81548152906001019060200180831161095b57829003601f168201915b505050505081565b3390565b6006805460408051602060026001851615610100026000190190941693909304601f810184900484028201840190925281815292918301828280156109785780601f1061094d57610100808354040283529160200191610978565b600354600454106109fe57600a805460ff60a01b1916600160a11b1790555b565b6000828152602081905260408120610a1e908363ffffffff6110ea16565b90505b92915050565b6000828152602081905260408120610a1e908363ffffffff6110f616565b600081565b60008080600a54600160a01b900460ff166002811115610a6657fe5b14610a7057600080fd5b336000908152600b6020526040902054610a8957600080fd5b336000818152600b60209081526040808320805490849055600a5460015483516323b872dd60e01b81526001600160a01b039182166004820152602481019790975260448701839052925191959216936323b872dd93606480850194919392918390030190829087803b158015610aff57600080fd5b505af1158015610b13573d6000803e3d6000fd5b505050506040513d6020811015610b2957600080fd5b5051610b4957336000908152600b60205260408120919091559150610b65565b600454610b5c908263ffffffff61110b16565b60045560019250505b5090565b600a54600160a01b900460ff1681565b600080600a54600160a01b900460ff166002811115610b9457fe5b14610b9e57600080fd5b6001546001600160a01b0316331415610bb657600080fd5b600a54600154604080516323b872dd60e01b81523360048201526001600160a01b03928316602482015260448101869052905191909216916323b872dd9160648083019260209291908290030181600087803b158015610c1557600080fd5b505af1158015610c29573d6000803e3d6000fd5b505050506040513d6020811015610c3f57600080fd5b5050336000908152600b6020526040902054610c61908363ffffffff61114d16565b336000908152600b6020526040902055600454610c84908363ffffffff61114d16565b6004819055604080513381526020810185905280820192909252517f5cdc4ab8d637538ead6cc1904d4160343656c8c82bd266635cfd31ac008fffe09181900360600190a16108576109df565b6009805460408051602060026001851615610100026000190190941693909304601f810184900484028201840190925281815292918301828280156109785780601f1061094d57610100808354040283529160200191610978565b6000818152602081905260408120610a21906111a7565b60045481565b6001546001600160a01b031690565b600082815260208190526040902060020154610d769061080d610980565b6108b25760405162461bcd60e51b81526004018080602001828103825260308152602001806114556030913960400191505060405180910390fd5b6001600160a01b0381166000908152600b602052604081205415610dd7575060016107e4565b506000919050565b600a54600160a01b900460ff1690565b600280546001805460058054604080516020601f6000199785161561010002979097019093169790970494850182900482028701820190528386526001600160a01b0394851695929094169360609384938493600093849384938493849391929091830182828015610ea25780601f10610e7757610100808354040283529160200191610ea2565b820191906000526020600020905b815481529060010190602001808311610e8557829003601f168201915b505060068054604080516020601f60026000196101006001881615020190951694909404938401819004810282018101909252828152969e5091945092508401905082828015610f335780601f10610f0857610100808354040283529160200191610f33565b820191906000526020600020905b815481529060010190602001808311610f1657829003601f168201915b505060098054604080516020601f60026000196101006001881615020190951694909404938401819004810282018101909252828152969d5091945092508401905082828015610fc45780601f10610f9957610100808354040283529160200191610fc4565b820191906000526020600020905b815481529060010190602001808311610fa757829003601f168201915b50505050509550600a60149054906101000a900460ff169450600454935060035492506007549150600854905090919293949596979899565b600a546001600160a01b031681565b600082815260208190526040902061102a908263ffffffff6111b216565b1561085757611037610980565b6001600160a01b0316816001600160a01b0316837f2f8788117e7eff1d82e926ec794901d17c78024a50270940304540a733656f0d60405160405180910390a45050565b6000828152602081905260409020611099908263ffffffff6111c716565b15610857576110a6610980565b6001600160a01b0316816001600160a01b0316837ff6391f5c32d9c69d2a47ea670b442974b53935d1edc7fd64eb21e047a839171b60405160405180910390a45050565b6000610a1e83836111dc565b6000610a1e836001600160a01b038416611240565b6000610a1e83836040518060400160405280601e81526020017f536166654d6174683a207375627472616374696f6e206f766572666c6f770000815250611258565b600082820183811015610a1e576040805162461bcd60e51b815260206004820152601b60248201527f536166654d6174683a206164646974696f6e206f766572666c6f770000000000604482015290519081900360640190fd5b6000610a21826112ef565b6000610a1e836001600160a01b0384166112f3565b6000610a1e836001600160a01b03841661133d565b8154600090821061121e5760405162461bcd60e51b81526004018080602001828103825260228152602001806114046022913960400191505060405180910390fd5b82600001828154811061122d57fe5b9060005260206000200154905092915050565b60009081526001919091016020526040902054151590565b600081848411156112e75760405162461bcd60e51b81526004018080602001828103825283818151815260200191508051906020019080838360005b838110156112ac578181015183820152602001611294565b50505050905090810190601f1680156112d95780820380516001836020036101000a031916815260200191505b509250505060405180910390fd5b505050900390565b5490565b60006112ff8383611240565b61133557508154600181810184556000848152602080822090930184905584548482528286019093526040902091909155610a21565b506000610a21565b600081815260018301602052604081205480156113f9578354600019808301919081019060009087908390811061137057fe5b906000526020600020015490508087600001848154811061138d57fe5b6000918252602080832090910192909255828152600189810190925260409020908401905586548790806113bd57fe5b60019003818190600052602060002001600090559055866001016000878152602001908152602001600020600090556001945050505050610a21565b6000915050610a2156fe456e756d657261626c655365743a20696e646578206f7574206f6620626f756e6473416363657373436f6e74726f6c3a2073656e646572206d75737420626520616e2061646d696e20746f206772616e74416363657373436f6e74726f6c3a2073656e646572206d75737420626520616e2061646d696e20746f207265766f6b65416363657373436f6e74726f6c3a2063616e206f6e6c792072656e6f756e636520726f6c657320666f722073656c66a264697066735822122029d308653e079f5d0fb07dd6c42eb079c7522b6a678cff31b09257127d238b8b64736f6c63430006020033",
  "source": "pragma solidity >=0.6.2;\n\nimport \"@openzeppelin/contracts/token/ERC20/IERC20.sol\";\nimport \"@openzeppelin/contracts/math/SafeMath.sol\";\nimport \"@openzeppelin/contracts/access/AccessControl.sol\";\n\ncontract PaymentProcessor is AccessControl {\n    bytes32 public constant FUNDER_ROLE = keccak256(\"FUNDER_ROLE\");\n    bytes32 public constant FREELANCER_ROLE = keccak256(\"FREELANCER_ROLE\");\n    bytes32 public constant EVALUATOR_ROLE = keccak256(\"EVALUATOR_ROLE\");\n\n    address public owner;\n    IERC20 public token;\n    Product[] private products;\n    address[] projectAddresses;\n\n\n    struct person {\n        address userAddress;\n        string name;\n        string roleName;\n        bytes32 roleAddress;\n        int256 rating;\n        string expertiseDomain;\n    }\n\n    struct freelancerApplyProduct {\n        address projectAddress;\n        uint256 amount;\n    }\n    \n    mapping(address => address[]) public evaluatorSubscribers;\n    mapping(address => freelancerApplyProduct[]) public freelancerProducts;\n\n    mapping(address => person) public persons;\n\n    event PaymentDone(\n        address payer,\n        uint256 amount,\n        uint256 paymentId,\n        uint256 date\n    );\n\n    event ProductStarted(\n        address productAddress,\n        address ownerAddress,\n        string projectTitle,\n        string projectDescription,\n        string projectDomain,\n        uint256 devReward,\n        uint256 evaluatorReward,\n        uint256 date\n    );\n\n    constructor(\n        address ownerAddress,\n        address tokenAddress,\n        string memory ownerName\n    ) public {\n        owner = ownerAddress;\n        token = IERC20(tokenAddress);\n        persons[ownerAddress] = person(\n            ownerAddress,\n            ownerName,\n            \"manager\",\n            DEFAULT_ADMIN_ROLE,\n            5,\n            \"\"\n        );\n        _setupRole(DEFAULT_ADMIN_ROLE, ownerAddress);\n    }\n\n    function startProduct(\n        string calldata title,\n        string calldata description,\n        string calldata domain,\n        uint256 devReward,\n        uint256 evaluatorReward\n    ) external {\n        require(\n            hasRole(DEFAULT_ADMIN_ROLE, msg.sender),\n            \"Caller is not a manager\"\n        );\n\n        Product newProduct =\n            new Product(\n                msg.sender,\n                token,\n                title,\n                description,\n                domain,\n                devReward,\n                evaluatorReward\n            );\n        products.push(newProduct);\n        emit ProductStarted(\n            address(newProduct),\n            msg.sender,\n            title,\n            description,\n            domain,\n            devReward,\n            evaluatorReward,\n            block.timestamp\n        );\n    }\n\n    function returnAllProducts() external view returns (Product[] memory) {\n        return products;\n    }\n\n    function addFunder(address funder, string calldata name) external {\n        persons[funder] = person(funder, name, \"funder\", FUNDER_ROLE, -1, \"\");\n        _setupRole(FUNDER_ROLE, funder);\n    }\n\n    function addFreelancer(\n        address freelancer,\n        string calldata name,\n        string calldata domain\n    ) external {\n        persons[freelancer] = person(\n            freelancer,\n            name,\n            \"freelancer\",\n            FREELANCER_ROLE,\n            5,\n            domain\n        );\n        _setupRole(FREELANCER_ROLE, freelancer);\n    }\n\n    function addEvaluator(\n        address evaluator,\n        string calldata name,\n        string calldata domain\n    ) external {\n        persons[evaluator] = person(\n            evaluator,\n            name,\n            \"evaluator\",\n            EVALUATOR_ROLE,\n            5,\n            domain\n        );\n        _setupRole(EVALUATOR_ROLE, evaluator);\n    }\n\n    function getCurrentPerson()\n        public\n        view\n        returns (\n            address userAddress,\n            string memory name,\n            string memory roleName,\n            bytes32 roleAddress,\n            int256 rating,\n            string memory expertiseDomain\n        )\n    {\n        userAddress = persons[msg.sender].userAddress;\n        name = persons[msg.sender].name;\n        roleName = persons[msg.sender].roleName;\n        roleAddress = persons[msg.sender].roleAddress;\n        rating = persons[msg.sender].rating;\n        expertiseDomain = persons[msg.sender].expertiseDomain;\n    }\n\n    function getUserBasedOnAddress(address userAddress)\n        public\n        view\n        returns (\n            string memory name,\n            string memory roleName,\n            bytes32 roleAddress,\n            int256 rating,\n            string memory expertiseDomain\n        )\n    {\n        name = persons[userAddress].name;\n        roleName = persons[userAddress].roleName;\n        roleAddress = persons[userAddress].roleAddress;\n        rating = persons[userAddress].rating;\n        expertiseDomain = persons[userAddress].expertiseDomain;\n    }\n\n    function addSubscriber(address productAddress) external {\n        require(\n            hasRole(EVALUATOR_ROLE, msg.sender),\n            \"Caller is not an evaluator\"\n        );\n        \n        evaluatorSubscribers[msg.sender].push(productAddress);\n    }\n\n    function checkIfHasSubscriber(address productAddress) external view returns (bool) {\n        for(uint i = 0; i < evaluatorSubscribers[msg.sender].length; i++) {\n            if(evaluatorSubscribers[msg.sender][i] == productAddress) {\n                return true;\n            }\n        }\n        return false;\n    }\n\n    function applyProduct(address productAddress, uint256 amount) external {\n        require(\n            hasRole(FREELANCER_ROLE, msg.sender),\n            \"Caller is not a freelancer\"\n        );\n        \n        freelancerProducts[msg.sender].push(freelancerApplyProduct(productAddress, amount));\n    }\n\n    function checkIfFreelancerApplied(address productAddress) external view returns (bool) {\n        for(uint i = 0; i < freelancerProducts[msg.sender].length; i++) {\n            if(freelancerProducts[msg.sender][i].projectAddress == productAddress) {\n                return true;\n            }\n        }\n        return false;\n    }\n}\n\n// Product smart contract\n\ncontract Product is AccessControl {\n    using SafeMath for uint256;\n\n    enum State {Fundraising, Fail, Successful}\n\n    address payable public manager;\n    address public projectAddress;\n    uint256 public amountGoal;\n    uint256 public currentBalance;\n    string public title;\n    string public description;\n    uint256 public devReward;\n    uint256 public evaluatorReward;\n    string public domain;\n    IERC20 public token;\n\n    State public state = State.Fundraising;\n    mapping(address => uint256) public contributions;\n\n    // Event that will be emitted whenever funding will be received\n    event FundingReceived(\n        address contributor,\n        uint256 amount,\n        uint256 currentTotal\n    );\n    // Event that will be emitted whenever the project starter has received the funds\n    event CreatorPaid(address recipient);\n\n    // Modifier to check current state\n    modifier inState(State _state) {\n        require(state == _state);\n        _;\n    }\n\n    // Modifier to check if the function caller is the project creator\n    modifier isCreator() {\n        require(msg.sender == manager);\n        _;\n    }\n\n    constructor(\n        address payable managerAddress,\n        IERC20 tokenAddress,\n        string memory productTitle,\n        string memory productDescription,\n        string memory productDomain,\n        uint256 productDevReward,\n        uint256 productEvaluatorReward\n    ) public {\n        manager = managerAddress;\n        title = productTitle;\n        description = productDescription;\n        amountGoal = productDevReward + productEvaluatorReward;\n        currentBalance = 0;\n        devReward = productDevReward;\n        evaluatorReward = productEvaluatorReward;\n        domain = productDomain;\n        token = tokenAddress;\n        projectAddress = address(this);\n    }\n\n    function getSender() public view returns (address sender) {\n        sender = msg.sender;\n    }\n\n    function getManager() public view returns  (address managerAddress) {\n        managerAddress = manager;\n    }\n\n    function getProductState() public view returns (State) {\n        return state;\n    }\n\n    /** @dev Function to fund a certain project.\n     */\n    function contribute(uint256 amount)\n        external\n        payable\n        inState(State.Fundraising)\n    {\n        require(msg.sender != manager);\n        token.transferFrom(msg.sender, manager, amount);\n\n        contributions[msg.sender] = contributions[msg.sender].add(amount);\n        currentBalance = currentBalance.add(amount);\n        emit FundingReceived(msg.sender, amount, currentBalance);\n        checkIfFundingCompleteOrExpired();\n    }\n\n    function checkIfFunderPayed(address funder) external view returns (bool) {\n        if(contributions[funder] > 0){\n            return true;\n        }\n        return false;\n    }\n\n    /** @dev Function to change the project state depending on conditions.\n     */\n    function checkIfFundingCompleteOrExpired() public {\n        if (currentBalance >= amountGoal) {\n            state = State.Successful;\n        }\n    }\n\n    /** @dev Function to give the received funds to project starter.\n     */\n    function payOut() internal inState(State.Successful) returns (bool) {\n        uint256 totalRaised = currentBalance;\n        currentBalance = 0;\n\n        if (manager.send(totalRaised)) {\n            emit CreatorPaid(manager);\n            return true;\n        } else {\n            currentBalance = totalRaised;\n            state = State.Successful;\n        }\n\n        return false;\n    }\n\n    /** @dev Function to retrieve donated amount when a project expires.\n     */\n    function getRefund() external payable inState(State.Fundraising) returns (bool) {\n        require(contributions[msg.sender] > 0);\n\n        uint256 amountToRefund = contributions[msg.sender];\n        contributions[msg.sender] = 0;\n\n        if (!token.transferFrom(manager, payable(msg.sender), amountToRefund)) {\n            contributions[msg.sender] = amountToRefund;\n            return false;\n        } else {\n            currentBalance = currentBalance.sub(amountToRefund);\n        }\n\n        return true;\n    }\n\n    function getAmountToRefund() public view returns (uint256) {\n        require(contributions[msg.sender] > 0);\n        return contributions[msg.sender];\n    }\n\n    function getDetails()\n        public\n        view\n        returns (\n            address productAddress,\n            address payable managerAddress,\n            string memory productTitle,\n            string memory productDescription,\n            string memory productDomain,\n            State currentState,\n            uint256 currentAmount,\n            uint256 goalAmount,\n            uint256 productDevReward,\n            uint256 productEvaluatorReward\n        )\n    {\n        productAddress = projectAddress;\n        managerAddress = manager;\n        productTitle = title;\n        productDescription = description;\n        productDomain = domain;\n        currentState = state;\n        currentAmount = currentBalance;\n        goalAmount = amountGoal;\n        productDevReward = devReward;\n        productEvaluatorReward = evaluatorReward;\n    }\n}\n",
  "sourcePath": "D:/Facultate/Blockchain/Software Marketplace/src/contracts/PaymentProcessor.sol",
  "compiler": {
    "name": "solc",
    "version": "0.6.2+commit.bacdbe57.Emscripten.clang"
  },
  "schemaVersion": "3.3.3",
  "updatedAt": "2021-01-27T12:38:28.569Z",
  "devdoc": {
    "methods": {
      "checkIfFundingCompleteOrExpired()": {
        "details": "Function to change the project state depending on conditions."
      },
      "contribute(uint256)": {
        "details": "Function to fund a certain project."
      },
      "getRefund()": {
        "details": "Function to retrieve donated amount when a project expires."
      },
      "getRoleAdmin(bytes32)": {
        "details": "Returns the admin role that controls `role`. See {grantRole} and {revokeRole}.     * To change a role's admin, use {_setRoleAdmin}."
      },
      "getRoleMember(bytes32,uint256)": {
        "details": "Returns one of the accounts that have `role`. `index` must be a value between 0 and {getRoleMemberCount}, non-inclusive.     * Role bearers are not sorted in any particular way, and their ordering may change at any point.     * WARNING: When using {getRoleMember} and {getRoleMemberCount}, make sure you perform all queries on the same block. See the following https://forum.openzeppelin.com/t/iterating-over-elements-on-enumerableset-in-openzeppelin-contracts/2296[forum post] for more information."
      },
      "getRoleMemberCount(bytes32)": {
        "details": "Returns the number of accounts that have `role`. Can be used together with {getRoleMember} to enumerate all bearers of a role."
      },
      "grantRole(bytes32,address)": {
        "details": "Grants `role` to `account`.     * If `account` had not been already granted `role`, emits a {RoleGranted} event.     * Requirements:     * - the caller must have ``role``'s admin role."
      },
      "hasRole(bytes32,address)": {
        "details": "Returns `true` if `account` has been granted `role`."
      },
      "renounceRole(bytes32,address)": {
        "details": "Revokes `role` from the calling account.     * Roles are often managed via {grantRole} and {revokeRole}: this function's purpose is to provide a mechanism for accounts to lose their privileges if they are compromised (such as when a trusted device is misplaced).     * If the calling account had been granted `role`, emits a {RoleRevoked} event.     * Requirements:     * - the caller must be `account`."
      },
      "revokeRole(bytes32,address)": {
        "details": "Revokes `role` from `account`.     * If `account` had been granted `role`, emits a {RoleRevoked} event.     * Requirements:     * - the caller must have ``role``'s admin role."
      }
    }
  },
  "userdoc": {
    "methods": {}
  }
}